:020000040800F2
:10000000000200208904000825040008E10300081C
:1000100035040008450400085504000800000000ED
:10002000000000000000000000000000C503000800
:100030006504000800000000A9030008750400081A
:1000400025010008250100082501000825010008F8
:1000500025010008250100081119000811190008E0
:1000600011190008111900081119000825010008CC
:1000700025010008250100082501000825010008C8
:1000800025010008250100082501000825010008B8
:1000900025010008250100082501000811190008A4
:1000A0002501000825010008250100085D20000841
:1000B0002501000825010008250100082501000888
:1000C0002501000825010008250100082501000878
:1000D00025010008651600086B1600087116000857
:1000E00011190008091F0008250100082501000852
:1000F0002501000800000000250100082501000876
:100100002501000825010008250100082501000837
:100110002501000825010008250100082501000827
:100120002501000800F0A6B900F0B8BA7047000039
:1001300070B50C46064600F0A1FA094B094A1D6845
:100140002C44944202D8084A944207D20C234FF020
:10015000FF35336000F09AFA284670BD1C60F9E75D
:1001600000020020004001204C7700201946104674
:1001700000F0A0BA1946104600F0A4BA1323036099
:100180004FF0FF307047132303604FF0FF3070478C
:10019000132303604FF0FF307047002302290360F0
:1001A0008CBF002001207047134910B50C68002057
:1001B00094FAA4F18442B1FA81F108BF4FF0FF3103
:1001C0000E4C0F4B54F8211018600E4B09681A683A
:1001D000A1F1080494420ED022B11079092804BF7D
:1001E0000A2010710922012001F8042C31F9021CA7
:1001F000054A1C60118010BD900E0020A40E002046
:100200009C0E0020980E0020940E0020082930B586
:1002100003791AD9082B14D842791A4B00F1080433
:1002200053F822507DB12D68856053F822502C6020
:1002300043F822400123144A4479A340146823431D
:100240001360017130BD8460F2E7082BF9D945795C
:100250000C4B53F825203AB11468A2420BBF002280
:10026000246843F825201460427953F82230002B8B
:10027000E7D10123044C03FA02F2236823EA0203C4
:100280002360DEE7A40E0020900E002008B5094B85
:100290001B681A79082A02D95B79834205D900F0D4
:1002A000F8F918B10122044B1A6008BDBDE80840F6
:1002B00000F072B8980E00209C0E0020002408B5B3
:1002C00000F0DCF9084B094A1B88094D1BB242F8C3
:1002D0002340084A214613682868013B1360FFF752
:1002E00095FF2C6000F054F8940E0020E40E0020DE
:1002F000980E0020A00E002013444FF0773223F018
:10030000030310B51C1F43F8042C620742BF4FF0D3
:100310008832A3F1080443F8082C4FF0807344E9B5
:1003200002030D4B002244F80C3C0323022044E955
:1003300005320123224644E907300B2342F8201DF1
:1003400042F8043D013B032BFAD120466FF0020333
:1003500040F8443D10BD00BFBD0200080548064AF4
:10036000064B0168914201D1984201D3181A704797
:100370000430F6E700000020FEE7FEE70002002060
:10038000EFF308807047000000487047000000202D
:1003900000F078F901DFFEE7024A536843F080532A
:1003A0005360704700ED00E0EFF3098020E9F00FA3
:1003B00040F804ED02490968086000F003F8000005
:1003C000980E0020FFF7F0FE04480068016801C99C
:1003D000B1E8F00F81F3098800470000980E002073
:1003E0000D4B0E4A0E496846904203D8984201D9F7
:1003F000002102E009468D46012104207246024296
:1004000002D1EFF3088001E0EFF309802DE9F00F4E
:100410006B4600F06FF800BF58010020004001203B
:100420000002002008B50249042000F03BFB00BF99
:10043000C99F000808B50249062000F033FB00BF41
:10044000B69F000808B50249072000F02BFB00BF4B
:10045000909D000808B50249082000F023FB00BF6A
:10046000D59F000808B50249092000F01BFB00BF1A
:10047000A29D000808B502490A2000F013FB00BF46
:10048000B49D00087047704708B5FFF7FBFF6A4648
:10049000114B1249934213D3114A124B12498B420A
:1004A00011D30021114B124A934211D3FFF7EBFFF6
:1004B00000F0E6FA08F0DAFABDE8084000F028BBE0
:1004C00043F8041BE6E752F8040F43F8040BE6E791
:1004D00043F8041BE8E700BF00000020FEE7FEE74A
:1004E00094CF0008000200208C0E0020900E002007
:1004F0004C7700202DE9F04F9A464A4B93469A6B71
:100500008FB003925A6B9F6A0492DA6A044605928E
:100510001A6BDB6B06920793434B88461A68434B72
:100520009A4202D0424808F01FFCB8F1000F4ED0AA
:100530000025404808F018FC2E463F4808F014FCFF
:1005400039463E4808F088FB05993D4808F084FB91
:1005500006993C4808F080FB07993B4808F07CFB73
:100560003A0403D50399394808F076FB3B0603D5D6
:100570000499374808F070FB364808F0F5FB5946F7
:10058000354808F069FBB8F1000F1BD1334808F07B
:10059000EBFB3146324808F05FFB6946314BC91A24
:1005A00003D54942304808F057FB20468268C368AB
:1005B00001698C4641698E46AD46514691E8F00F7F
:1005C0004168006801BE2949052000F06BFAD4E9B2
:1005D000023008902069D4E906690990606919F42D
:1005E000007F0A902248D4E9001208BF04F12005D8
:1005F000CDE90C2318BF04F124050B9108F0B4FBDE
:10060000089B0B9900931B48DDE90C2308F024FBA1
:10061000DDE90912CDF800903346174808F01CFBBD
:100620008BE700BF00ED00E000000020FEE7FEE7E2
:10063000C29D0008D89D00089D9E0008A69E000847
:10064000B69E0008C69E0008D69E0008E69E0008DA
:10065000F69E0008069F00080B9F00081D9F0008DB
:100660004E9F000858010020769F0008A39F0008B5
:10067000079E0008229E00085F9E0008EFF310808E
:1006800072B6704762B6EFF31080704780F310883F
:100690007047EFF30580C0B270470000034B044A77
:1006A0004FF4E131002000F0B1BF00BF0402002090
:1006B000E50F00080A460146014800F09EBC00BF55
:1006C0000402002010B50C460A460146002000F046
:1006D000ABFF204610BD002001F080BC38B5044CB3
:1006E0002568FFF7F8FF2368AB42F9D1184338BDFE
:1006F000B00F0020034B196819B982B2084601F007
:100700004BBC7047A80F002010B5094A136843B1CD
:100710009C6881688C4207D303D15C6841688C4235
:1007200002D90360106010BD1A461B68EFE700BFD6
:10073000B40F00202DE9F047294E3268B24602F589
:100740008032326032681AB9264B1A6801321A6058
:100750000020254B254C1A681860236884461946EA
:10076000234FDFF880E0DFF88C803A6021B1DEF8BB
:1007700000508E68AE4217D900B12160BCF1000F65
:1007800010D00021CCF800103AB3C3B151685868BA
:1007900081428CBF19461146084612681B6882B90F
:1007A00003603960BDE8F0874D68DAF8009005EA2B
:1007B00008054D45E0D18C4601200968D6E7114671
:1007C000EAE70BB90260ECE754685D68AC428CBFA5
:1007D0001C46144604602046DFE73B60E2E700BFAA
:1007E000B00F0020AC0F0020B80F0020B40F002085
:1007F000BC0F00200000FFFF01232DE9F0412E4F28
:100800002E4C3B602368A3B9FFF794FF4FF6FF75AA
:10081000FFF761FFA842FBD000254FF000082368D6
:100820005BB9FFF758FF854224D9FFF783FF002506
:10083000F5E7FFF750FF0546EFE75E68FFF74BFF70
:10084000854205D8B3B2834202D91B1A132BE8D8CC
:1008500023685E68FFF73FFF854202D8B6B2864242
:10086000F6D823681A68C3E901882260D3E9032017
:100870009047D4E723686BB15E68FFF72CFF063E14
:1008800014308642CBD3002330463B60BDE8F041B4
:10089000FFF730BFFFF71FFF85420646C5D800F1BE
:1008A00014039BB2984204D9FFF715FF8642FBD987
:1008B000BBE74FF6FF76E6E7A80F0020BC0F00204D
:1008C000144A1368834210D11B6813601BB1586827
:1008D0000638FFF70FBF4FF6FF70FAE79842196826
:1008E00001D1116070471A460B46002BF6D10A4A17
:1008F00013681BB9094A136833B9704798421968DD
:10090000EFD01A460B46F4E798421968E9D01A4628
:100910000B46F1E7BC0F0020B80F0020B40F0020F9
:1009200008B50023054A1846054901F069FBBDE8F2
:1009300008404FF0FF30FFF7DDBE00BFF9070008A9
:1009400040420F00F8B504460D46FFF7C7FE0023EE
:1009500085420646236011D3EB1E83420ED2033537
:10096000ADB2FFF7B8FE8542FBD3FFF7B4FE854278
:10097000FBD8D4E9033098470020F8BDFFF77EFE8E
:10098000636807460BB9A36813B12046FFF798FFC9
:100990001C4BB5421A681B6838BF0132A260A268BE
:1009A00065609A4205D8184B1A682B0C1B049A42B2
:1009B00006D02046FFF7A8FE3846FFF767FEDBE7C4
:1009C000B6B2B5420FD9114B19461A6812B1506828
:1009D000854214D222601C600B689C42ECD1A81F97
:1009E000FFF788FEE8E70A4A136813B159688D4299
:1009F00002D223601460DFE71A461B68F5E713464E
:100A00001268E3E7AC0F0020B00F0020BC0F0020FD
:100A1000B80F002038B50446FFF730FE636805467E
:100A20000BB9A36813B12046FFF74AFF2846BDE87B
:100A30003840FFF72BBEC36870B504460D46CBB1F6
:100A4000FFF7E8FF022D0DD8FFF745FE0646FFF73A
:100A500042FE801B80B28542F9D8D4E90330BDE85C
:100A600070401847FFF73AFE29182046BDE870404D
:100A7000FFF768BF70BD08B5FFF700FEFEE7000096
:100A800010B5064C00F0F0F92046012100F0F3FD0E
:100A90002046BDE8104000F0DDBA00BF000402406F
:100AA0007047000008B50F4B0C461A689AB901222E
:100AB00003281A6003D171460B4808F0CDF821468F
:100AC0000A4808F0C9F800F0EDFB094808F0C4F83E
:100AD000084808F0C1F8FFF7D1FDFFF7E1FFFFF785
:100AE000CAFF00BFC00F0020FB9F0008FF9F000847
:100AF00027A000081BA0000808B501F00AFB00F0C1
:100B00008DFA002008BD08B500F0C2FBFCE700002C
:100B10001FB50024FFF7B2FD0D4B0F221B684FF4E9
:100B2000807102930B4B019400930B480C2300F04F
:100B300055F80A4B07221B684FF44061CDE9014389
:100B4000074B084800930C2300F048F8FFF720FCFF
:100B500018020020070B0008C40F00201C02002010
:100B6000F90A0008C410002008B5FFF787FD094BFB
:100B70001B681A79082A07D95A79074B53F82210AB
:100B800011B1096843F82210FFF780FDBDE8084065
:100B9000FFF702BC980E0020A40E002038B50B7998
:100BA000082B03D908490320FFF77CFF4C7901F19A
:100BB0000802036813B98B60026038BD13F8035C48
:100BC000AC42F8D31846F4E7E99F0008031F53F836
:100BD000042F9A42FBD0181A704700000F2A2DE903
:100BE000F74F05468B4691469A4633D810F00303DB
:100BF0000FBF0B46C3F10403ED18CB1A303B23F0B3
:100C000003031AF0080F05EB030419D12D6003E06C
:100C100012600432A242FBD30193FFF72FFD0122A1
:100C200080462749019B51F8226017B2AEB10132CC
:100C3000212AF8D14046FFF729FD6FF08A073BE0F3
:100C40002A46E7E701212046FFF7E0FA4046FFF792
:100C50001DFD31E06FF015072EE041F822402A46D5
:100C6000DDE90C01E780FFF747FB0E9B154AA36205
:100C70004FF0FF33C4E9073613681AF0010F03F190
:100C8000010320606562C4F82CB084F805902671D9
:100C9000C4E90266C4E90466A6611360D2D10A21E0
:100CA0002046FFF7B3FA1AF0040FCFD14046FFF702
:100CB000EDFC4846FFF7EAFA384603B0BDE8F08F8E
:100CC000E40E0020A00E0020F8B505460F4616469B
:100CD00004463C44204601F099FA631B08B19E4249
:100CE000F7D81846F8BD0000524B37B51A68524C79
:100CF00042F480721A609A6822F47F5222F0300225
:100D00009A609A6822F0EE429A609A6822F0030292
:100D10009A609A6822F47D029A601968474A0A40EC
:100D20001A600022DA60226832B91A6842F480320E
:100D30001A604FF400332360002342F21070022542
:100D400001933C4B1A6821680A4061D03C4B1A68F9
:100D500042F004021A601A6842F001021A601A682E
:100D600042F002021A609A691007FCD54FF08051D8
:100D7000002000F01BFB334B1A6822F4C05242F4EF
:100D800000621A605A68D106FCD42A4B9A6822F491
:100D90007F5222F030029A602268B2F5003F9A68D2
:100DA0000CBF42F4050242F488029A601A6842F0CD
:100DB00080721A601A689201FCD540F201129B6899
:100DC00021492068B0F5003F08BF114643F00302F7
:100DD000184B9A609A6802F00C020C2AFAD11A6831
:100DE0001A4822EA01021A60194B1A4A1A491A6073
:100DF000032207F05FFE042223681848B3F5003F82
:100E00000CBF1749174903B0BDE8304007F052BE88
:100E10000199013101910199814293DD196841F0F5
:100E200001011960196821F480311960256001926F
:100E300088E700BF00380240C41C0020FEFFFAEE25
:100E4000003C02400070004000010100CC1C00206A
:100E5000C81C00200048E80155A00008CF1C002055
:100E600059A000085EA0000870B501F0AFF901F0CC
:100E700031F8002001F01EF8174B984207D10021ED
:100E8000084601F007F801F031F8144B9847FFF7D6
:100E90002BFF0023124C134D134E2360284601F004
:100EA000B5F930B1236805F580650133B54223609B
:100EB000F4D100224FF0FF302168D3B2994202F101
:100EC000010203D8BDE8704001F018B903F58013A2
:100ED00080339B021860EFE7AD1007B00400F01FED
:100EE000D81C00200000024000200240234B1A685A
:100EF00042F480721A601A689205FCD55A6822F48E
:100F0000604202435A609A6822F0F002114321F0D5
:100F100003011A4A9960936813F00C0FFBD130F467
:100F20000053174B1A6821D142F4804242F001026B
:100F30001A60144B1A6822F001021A601A6822F033
:100F400002021A601A6822F004021A609A691207F3
:100F5000FCD50A4A0C4B1168400B0B4013604FF450
:100F6000803303FA00F0094B1860704742F4C05216
:100F70001A605A68D106FCD4DBE700BF0038024093
:100F800000700040003C0240FEFFFAEEC81C00204A
:100F90004FF4A0324FF480514FF00050FFF794BE51
:100FA0004FF400224FF400414FF00060FFF78CBE79
:100FB0004FF480424FF400610148FFF785BE00BF47
:100FC00000000808054B1B68C3F30B03A3F216438C
:100FD000212B9ABF024AD05C00207047002004E019
:100FE00033A0000838B50446043001F074F8054613
:100FF000204601F0C5F8284638BDF8B504460E462F
:101000001746051D3A463146284601F04FF800B113
:10101000F8BD0121204601F083F8F3E708B5024846
:1010200001F0CCFB002008BDDC1C0020012808B525
:101030000AD0FFF759FEFFF773FCBDE808404FF4F4
:10104000E131002000F00ABA00214FF42040FFF700
:101050004DFFF0E77047000000224F4B1A604F4BE6
:101060004F4AA3F58063C3F808244E4AC3F8082406
:10107000D3F8002442F00802C3F800241A6B22F0CF
:1010800001021A631A6B22F002021A631A6B22F031
:1010900004021A631A6B22F008021A631A6B22F018
:1010A00010021A631A6B22F020021A631A6B22F4E0
:1010B00000721A631A6B22F400621A631A6B22F42C
:1010C00080421A631A6B22F400421A631A6B22F4EC
:1010D00000321A631A6B22F480221A631A6B22F40C
:1010E00000221A631A6B22F480121A631A6B22F41C
:1010F00000121A631A6B22F480021A631A6B22F42C
:1011000000021A631A6B22F080521A631A6B22F0E3
:1011100000521A631A6B22F000421A63DA6A22F054
:101120000102DA62DA6A22F00402DA62DA6A22F092
:101130000802DA62DA6A22F01002DA62DA6A22F46B
:101140000072DA62DA6A22F40062DA62DA6A22F49F
:101150008052DA62DA6A22F48042DA629A6A22F40F
:1011600080529A629A6A22F400429A629A6A22F43F
:1011700080329A629A6A22F080729A629A6A22F0A7
:1011800000729A629A6A22F000629A629A6A22F067
:1011900080429A62704700BFCC1D0020003C024094
:1011A00037261504FDFCFBFA10B5042856D8DFE8F5
:1011B00000F0575D03223E00314B1A6842F00402F2
:1011C0001A601A6842F001021A602E4A136923F06D
:1011D00004031361FFF752FA00210846FFF786FE69
:1011E000BFF34F8F30BF284B1868C0B2FFF71EFF08
:1011F000FFF748FA32E0224B224C1A6842F0040210
:101200001A601A6842F001021A601A6842F4007209
:101210001A60236943F004032361FFF72FFABFF339
:101220004F8F30BF236923F004032361DBE7144BA6
:1012300014491A6842F004021A601A6842F0020265
:101240001A600A6942F004020A611A6842F40072E4
:101250001A60FFF713FABFF34F8F30BF002010BDA5
:10126000FFF70CFA0022084B1A60BDE7074B1B681A
:10127000002BF3D1FFF702FA034B0122F4E700BF82
:101280000070004000ED00E0CC1D00202402002092
:10129000034B1B6813B90320FFF786BF704700BFDD
:1012A000200200202DE9F04F2D4B8BB01B882D4ADA
:1012B0002D492E48ADF8243007F0CEFCFFF74EF84C
:1012C0000546FFF761F80446FFF75AF82A460090F2
:1012D00023464FF40071264807F0BEFC01264FF468
:1012E0000077DFF89C90DFF89CA0DFF89CB025EA3F
:1012F000E57559F826401CB394F80480E26A5AF860
:101300002830606A079317440692FFF75FFC069A3D
:10131000B4F90610101A226805440592626A079B08
:10132000CDE90302E26A584602926279019209AA63
:10133000B8F1080FC8BF01320092A26A07F08CFC16
:101340000136212ED5D10B4BCDE9017500930A4A08
:1013500019460A4807F080FC0BB0BDE8F08F00BFCB
:1013600063A0000865A000086BA0000870A000083A
:10137000B8A000083EA1000840A1000844A1000850
:10138000E40E002064A1000802A10008014B1868C7
:10139000704700BFC81C0020024A034B105C1B684A
:1013A00058437047EBA10008C81C002001280AD050
:1013B00004D302280CD0BFF34F8F7047074A536AFB
:1013C00019435162F7E7054A136A19431162F2E7BC
:1013D000024AD3691943D161EDE700BF00380240EA
:1013E000012809D002D302280CD07047084A536A5A
:1013F00023EA010151627047054A136A23EA010199
:1014000011627047024AD36923EA0101D161704732
:101410000038024038B5182343430D4AD5582C886C
:10142000A4B2A20608D50B4BA98803EBC002C9B22F
:1014300053F8303050689847230748BFAB88064BB5
:101440001B681BB1BDE83840FFF78EBB38BD00BF3D
:10145000F0A10008D01D00209C0E00202DE9F041D5
:10146000182545431D4E0C4606EB050898F81470E8
:101470003846FFF78BFFB0FBF4F0072808D8384652
:10148000D8F80410FFF7ACFF6FF00100BDE8F08161
:1014900073590F289A8922F400524FEA02424FEA08
:1014A00012429A819989C2B20DD8083A41F400419A
:1014B00042F010029981D2B21A819A89002042F436
:1014C00000529A81E2E7C1F30E0199814FF6F07163
:1014D00002F00F0201400A43EEE700BFF0A100084E
:1014E00002282DE9F04705460F46904603D94349A7
:1014F0000320FFF7D7FA1824DFF80CA1404A04FBB9
:1015000000A4D4F8089042F8308002EBC002536087
:10151000217C484600F0AFF8E668617C304600F078
:10152000AAF8304600F0CEF9E17C304600F044F9EC
:10153000B8F1000F07D00021484600F09CF8A17CCC
:10154000484600F039F918246C430AEB0403596843
:10155000187DFFF72BFF00235AF80440A381238254
:10156000A3823B79012B02BFA38943F48053A3815B
:101570007B79012B2AD0022B31D0BB79022B32D0C0
:10158000032B34D01BB9238A43F480532382396858
:101590002846FFF763FF70BB42F20803A381B8F14E
:1015A000000F11D01823012103FB05A56B7D5AB252
:1015B00003F01F0301FA03F31249520941F82230E4
:1015C000A38943F02403A381BDE8F087A38943F4F2
:1015D0008063A381A38943F40073A381CDE7A3892A
:1015E00043F48063F9E7238A43F44053CEE7238A28
:1015F00043F40053CAE76FF00100E5E7E99F0008F4
:10160000D01D002000E100E0F0A1000807B5009126
:101610000021ADF8041001218DF806106946FFF78E
:101620005FFF03B05DF804FB022808B50AD8182351
:1016300058430A4B0A441B58914207D11A88520654
:10164000FCD508BD06490320FFF72CFA18880006D0
:10165000FCD511F8010B9880EEE700BFF0A100085F
:10166000E99F00080020FFF7D5BE0120FFF7D2BE9A
:101670000220FFF7CFBEF8B5431C0D4637D0012638
:1016800020F00F0400F00F07C0F3832006FA00F1EA
:101690000220FFF78BFE032307FA06FC03FA0CF384
:1016A000D843226805F0030102402260226801FA53
:1016B0000CF111432160E268BE401040E060002060
:1016C000E168C5F3810202FA0CF20A43E260A288E3
:1016D000C5F3001522EA0602A280A288BD40154388
:1016E000ADB2A580A268B6B21343A3602685F8BD4B
:1016F0002DE9F0411646421C054688464BD0012193
:101700002A4A00F00F0442F83430069B02EBC40270
:101710005360C0F383270846FFF748FE414628463A
:10172000FFF7A9FF042C224B37DC0122A11D8A40C0
:101730001A60012000FA04F2D2431E4B996811404E
:101740009960D3F808C006EA0001A14041EA0C0103
:101750009960D968C6400A40DA60DA68A640164344
:10176000DE600F2604F00C0404F1804404F580349C
:1017700005F00302A1689200964021EA0601A160EB
:10178000A168974000FA05F50F43A7605D611868EE
:10179000054300201D60BDE8F081092C02DC4FF4F8
:1017A0000002C5E74FF480725A60C2E7E81D0020CE
:1017B00000E100E000040140431C70B51FD003228B
:1017C00000F00F0420F00F031D686600B24025EA08
:1017D00002050222072C94BF00240124B2402A43B0
:1017E0001A6003EB84030F2400F007001A6A8000DC
:1017F000844022EA040201FA00F01043186270BD2E
:10180000431C10B517D000F00F04A2100A4B02328F
:1018100053F822300F2200F0030189008A40C0F300
:1018200083201A408840824205D10123034AA34005
:1018300011680B43136010BD00000140000401401B
:10184000431C10B518D000F00F040C4BA11002314E
:1018500053F821100F2300F0030292009340C0F3CD
:1018600083200B409040834206D101220449A240CC
:101870000B6823EA02030B6010BD00BF00000140AB
:1018800000040140431C10B516D0032320F00F02C2
:1018900000F00F00410014688B402340CB40DBB2C6
:1018A000012B05D1928A8340134043FA00F010BD0A
:1018B0002BB9128A0123F6E76FF00100F7E74FF02A
:1018C000FF30F4E7431C07D0012320F00F0200F0A3
:1018D0000F0003FA00F090617047431C08D0012309
:1018E00020F00F0200F00F00103003FA00F09061BA
:1018F000704710B50446FFF7C5FF20B12046BDE88C
:101900001040FFF7EABF2046BDE81040FFF7DABFFE
:101910002DE9F04100244FF001080E4D0E4F6E6985
:101920002A68164008FA04F3334206D06B6107EBCD
:10193000C40357F83420586890470134102CF1D173
:10194000064B1B681BB1BDE8F041FFF70DB9BDE8C0
:10195000F08100BF00040140E81D00209C0E002023
:101960000023092804DC40EA031088401040704737
:1019700001330A38F5E7104020FA01F10A200B1173
:1019800001F00F0100FB031070470000CA22024B58
:101990005A6253225A6270470028004008B503F08B
:1019A000F3FE03F0D7FE204B5A6B22F440325A6309
:1019B0005A6B42F482025A63FFF7E8FF1B4BDA6866
:1019C00042F08002DA60DA685106FCD500229A60A3
:1019D0008022DA60164A1A619A6822F040029A6000
:1019E0009A6822F400629A60DA6822F08002DA6073
:1019F0000E4BDA685206FCD4FF225A620D4BDA68AD
:101A000022F40032DA609A6842F400329A601A686E
:101A100042F400321A605A6942F400325A614FF4BB
:101A20000072054B5A6008BD003802400028004093
:101A3000FF0F07000004014000E100E070B5284CF2
:101A40000546FFF7A3FFE36843F08003E360E36824
:101A50005806FCD5642368694FF47F0290FBF3F6C7
:101A6000102103FB1600FFF77BFF4FF4F8520646E8
:101A700008212869FFF774FF4FF4604206430D21E7
:101A8000A869FFF76DFF3F2206430021E868FFF7D2
:101A900067FF304360604FF47C12A8681021FFF7A5
:101AA0005FFF4FF4FE42064608216868FFF758FFC3
:101AB0007F22064300212868FFF752FF3043206051
:101AC000E36823F08003E360054B1A46D9684906B2
:101AD000FCD4FF215962D3689B06FCD5002070BD61
:101AE00000280040214B70B51D685E6804464FF425
:101AF0007F0210213046FFF73EFF643060614FF4F3
:101B0000F85208213046FFF736FF3F2220610021BE
:101B10003046FFF730FF4FF46042E0600D21304661
:101B2000FFF729FF07280ABF0023A061A3614FF434
:101B30007C1210212846FFF71EFF6A02A06005D51F
:101B40000A4B9B685B0644BF0C30A0604FF4FE421A
:101B500008212846FFF70FFF7F22606000212846FA
:101B6000FFF709FF2060002070BD00BF0028004083
:101B7000204B70B55E6804464FF47F02102130465A
:101B8000DD69FFF7F8FE643060614FF4F852082118
:101B90003046FFF7F0FE6B00206121D54FF4604224
:101BA0000D212846FFF7E7FE0023072808BF002085
:101BB000E360A0614FF47C1210212846FFF7DBFEA2
:101BC0004FF4FE42A06008212846FFF7D4FE7F2292
:101BD000606000212846FFF7CEFE2060002070BD27
:101BE0004FF07C5218212846FFF7C5FE0723E0601E
:101BF000A361DFE700280040064B9A6822F4885270
:101C00009A60DA68D207FCD50022034B1A60DA60CA
:101C1000704700BF00280040681E002070B50446D1
:101C20001046FFF7B3FEFFF7E7FF2A4BE66819609F
:101C3000D86086BBA0694FF07C52002808BF0720FF
:101C40001821FFF78DFE4FF47C1205461021A06885
:101C5000FFF786FE4FF4FE42054308216068FFF758
:101C60007FFE7F22054331462068FFF779FE1A4B3D
:101C70002843D861DA6942F08042DA61164B0020CD
:101C8000DA6822F48072DA609A6842F488529A60C4
:101C9000FF225A6270BD4FF07C5218213046FFF788
:101CA0005FFE4FF47C1205461021A068FFF758FE36
:101CB0004FF4FE42054308216068FFF751FE7F2282
:101CC000054300212068FFF74BFE034B2843D861F2
:101CD000D4E700BF681E0020002800402DE9F74F20
:101CE000154607460E46FFF751FE374B9A6822F419
:101CF00008529A60DA689207FCD54FF47A744EF66F
:101D0000602B324B3248B7FBFBF2B7FBF0F0B7FB6E
:101D1000F4F8B7FBF3F318214FF03C0B0BFB128ADE
:101D20000BFB132B01FB1033002808BF07204FF0DB
:101D30007C520193FFF714FE019B81464FF47C1205
:101D400018461021FFF70CFE4FF4FE4249EA000945
:101D500008215846FFF704FE7F2249EA00090021C6
:101D60005046FFF7FDFDF42104FB18777C43B4FBDC
:101D7000F1F4154B49EA000018621A6AC4F57F6451
:101D800042F080421A629A6C0F3422F4FF4222F031
:101D90007F0242F00062E4B214439C649A6800201F
:101DA00042F400729A609A6842F400529A60DA68CB
:101DB00022F40072DA60074A56601561FF225A6207
:101DC00003B0BDE8F08F00BF0028004080EE360071
:101DD000005C2605681E00202DE9F84305462B4BC4
:101DE000DA6822F02002DA60DA689106FCD59A6A95
:101DF000996A4FF47A74914218BF9A6A6FF0F303AC
:101E0000534303F5732303F60C73B3FBF4F41F4B36
:101E1000DA6822F02002DA60DA689206FCD51F68E0
:101E20001A680D21BA4218BF1F68184B4FF4604260
:101E30005868FFF7A0FD4FF47C12072814BF8146B5
:101E40004FF0000910213846FFF795FD4FF4FE4290
:101E5000064608213846FFF78EFD7F228046002186
:101E60003846FFF788FD0A4B03FB09033C2000FBC3
:101E700008334FF4616000FB06334FF47A7606FBBB
:101E8000034300202B60BDE8F88300BF002800401A
:101E9000805101000022064B82B001920193019B08
:101EA00003EB81010191019B1860104602B070475D
:101EB00050280040002382B00193054B0193019B01
:101EC00003EB80000190019B186802B0704700BFCF
:101ED0005028004008B503F03DFC034A536B43F41F
:101EE0008003536308BD00BF0038024008B503F00B
:101EF00031FC044A536B23F480035363BDE808406C
:101F000003F036BC0038024010B51F4CE368D8051A
:101F10000DD51E4A13680BB1D0689847E3681C4A78
:101F200023F48073E360536943F400335361164C28
:101F3000E36899050DD5154A53680BB110699847A8
:101F4000E368134A23F40073E360536943F40033F6
:101F500053610D4BDA6852050DD5DA6822F48062C0
:101F6000DA600A4A93680BB150699847084A536986
:101F700043F480135361074B1B681BB1BDE810404D
:101F8000FEF7F2BD10BD00BF00280040681E002013
:101F9000000401409C0E0020032910B518DC0E4BF4
:101FA00000011C18185863681A4001F10C0300EB7B
:101FB00083035A600223028A03FA01F109B222EA7A
:101FC000010303828389194389B28181002010BDF6
:101FD0004FF0FF30FBE700BF38A20008024B0001C2
:101FE0001B58586A704700BF38A20008034B000115
:101FF0001A58138843F001031380704738A2000871
:1020000070B50D460446F8B911490120C1E9002315
:102010001021FFF7CBF94FF6FF730E4E01203480ED
:10202000B480F362FFF7B8F9B0FBF5F001234FF08D
:102030000062013880B23085B382074B20461A60B7
:10204000FFF7D4FF204670BD4FF0FF30FBE700BF25
:10205000801E00200010014000E100E02DE9F04169
:1020600000254FF002080E4C0E4F228AA68916401A
:1020700008FA05F2324207D0A389294623EA02036F
:10208000A38178683B6898470135042DF0D1064B51
:102090001B681BB1BDE8F041FEF766BDBDE8F081ED
:1020A00000100140801E00209C0E002070B51446D8
:1020B0001CB18568C3689D4201D1101B70BD866844
:1020C0000568731C83604368013C013B3340EB5C53
:1020D00001F8013BECE7C26830B584684368121B25
:1020E0009A4208D0C2680468551CC5600020013BB4
:1020F0001340E15430BD4FF0FF30FBE708B500203E
:1021000003F078FB012003F075FBBDE80840FFF702
:1021100045BC08B502F0A6FEBDE80840FEF700BCCD
:1021200070B504460D46FEF7A9FA236806463BB98A
:102130004FF0FF332360FEF7A9FA0125284670BD52
:10214000C5B10E4B02211D682846FEF75FF82368D3
:1021500001330AD105F1080323600023AB60304648
:10216000FEF794FAFEF718F9E7E729462046FEF74E
:1021700015FDF4E7FEF78AFAE0E700BF980E0020AD
:1021800070B50446FEF77AFA256806461DB9BDE823
:102190007040FEF77BBA6B1C02D100232360F6E788
:1021A000284650F808390A212360FEF72FF82368E3
:1021B00013B94FF0FF33236015F8034C3046FEF798
:1021C00065FA2046BDE87040FEF760B80C4B0D4A3A
:1021D00010B59A60102200210B4C83F82220DA7788
:1021E00060180131392980F80023F9D11A6942F0C9
:1021F00010021A615A6942F400725A6110BD00BFA0
:1022000000ED00E00000000800E100E00A4B9A6ADF
:1022100042F400429A625A6942F480725A6171B67D
:102220000278986A61B65A6980F4004022F480729C
:102230005A61C0F3C030704700ED00E0BFF34F8F2C
:102240000549064BCA6802F4E0621343CB60BFF352
:102250004F8F00BFFDE700BF00ED00E00400FA056E
:1022600008B5044806F080FD00210348FFF712FE80
:10227000FFF7E4FFC5A50008AD1007B008B5074893
:1022800006F072FD00F050FB10B9054806F06CFD39
:10229000044806F069FD002008BD00BF48A50008FD
:1022A00064A5000889A5000800B5134889B006F0A8
:1022B0005BFD20220021684606F020FC0F4B1048F1
:1022C000D3E9002106F0C8FC6A46002310210D481E
:1022D00004F050FE69460C4806F0BEFC0B4B0C485F
:1022E000196806F0B9FC0B4B0B48D3E9002106F046
:1022F000B3FC09B05DF804FBE9A50008981E0020B6
:1023000001AA0008A01E002052A90008901E00206B
:1023100009A60008881E0020D7A8000808B5FFF706
:10232000C3FF002008BD000030B5012885B006DCE1
:10233000224806F019FD0124204605B030BD4D6845
:102340001F49284606F0AFFD78B91E4806F00CFD7F
:1023500000F02CFC20B11C4806F006FDFFF76EFFD4
:102360001A4806F001FD0024E6E71949284606F060
:102370009AFD044688B910220146684606F0BEFB65
:1023800000F09AFC23466A4600F046FC08B111486A
:10239000E2E7114806F0E8FCCEE71049284606F0CF
:1023A00082FD04460028DED10D4806F0DDFC204603
:1023B00000F008FC0028D3D00A48CDE75DA2000851
:1023C0001BC00008B2A20008CFA20008F0A20008BB
:1023D00075A300080EA3000848A3000879A300080D
:1023E00081A30008B4A3000808B500F0FFFB012892
:1023F00021D003D3022809D01B4803E01B4806F074
:10240000B3FC1B48BDE8084006F0AEBC194806F016
:10241000ABFC194806F0A8FC00F058FC174B1860FC
:1024200000F04AFC164BC3E9000100F03FFC154BDD
:10243000C3E9000108BD144806F096FC134806F0F5
:1024400093FC134806F090FC0A4806F08DFC0A48FD
:1024500006F08AFC0E4806F087FC0E4806F084FC65
:102460000D4806F081FCE0E7FFA700081CA6000865
:1024700066A600088BA60008FDA60008901E002096
:10248000881E0020981E002034A7000868A70008B6
:1024900028A000088FA70008DFA70008012808B5BA
:1024A00023D1134806F060FCFFF7FEFE114806F04A
:1024B0005BFC00F09BFB78B1022813D80E4B0F4950
:1024C0001B680F4AD1E9000100F0A6FB50B10D488E
:1024D00006F04AFCFFF7B2FE0B4BD3E9000100F017
:1024E000D9FBF3E7094806F03FFC002008BD00BF18
:1024F000F2A500080CA80008901E0020881E0020ED
:10250000A01E002030A80008981E00204FA8000838
:102510000228F7B504DCFFF767FF012003B0F0BD28
:10252000D1E901544A49284606F0BDFC20BB00F021
:102530005DFB012806461FD1002200232046CDE97D
:10254000002306F0BAFC102803D0424806F00CFC29
:10255000E3E732466946204604F0F6FC08B93E48F7
:10256000F4E7DDE900213D4806F076FB3C4BDDE970
:102570000001C3E9000118E03A49284606F093FC3F
:102580000646E0B9204606F098FC202801D03648DF
:10259000DCE732463549204604F0D6FC08B9344819
:1025A000D4E72146334806F057FBFFF77DFE32485B
:1025B00006F0DAFB314806F0D7FB0020AEE73049E1
:1025C000284606F070FC0746E8B900F00FFB01282A
:1025D000064618D1204606F070FC0828014601D0B6
:1025E0002848B3E702AA42F8087D3346204604F0A3
:1025F0007DFC0028D3D02146234806F02DFB234B39
:10260000009A1A60D1E72249284606F04CFCD8B956
:1026100000F0ECFAC0B9002200232046CDE90023E7
:1026200006F04BFC102801D01A488FE701226946BA
:10263000204604F089FC002891D0DDE900211648ED
:1026400006F00AFB154B92E7154806F08DFBACE748
:102650006EA8000876A80008AAA80008D2A800085A
:10266000881E0020EDA80008F5A80008A01E002084
:102670002CA900084DA900082DAA000864AA00088A
:1026800060A9000869A900089CA90008901E002004
:10269000B0A90008B6A90008FCA90008981E0020EF
:1026A00015AA00082DE9F041012500270446424EF5
:1026B000036801EB410186B00E4401928DF80A5087
:1026C000D3F8148032462B468DF80B703921C04761
:1026D00023687219D3F8148038212B462046C0474E
:1026E0002368B21CD3F814803A212B462046C047F9
:1026F000236806AA02F80C7D5E6934212B46204629
:10270000B04723680DF10B025E6933212B4620464A
:10271000B04723680DF10B025E6935212B46204638
:10272000B04723680DF10A025E6931212B4620462D
:10273000B04723680DF10B025E693B212B46204612
:10274000B04723680DF10B025E693C212B46204601
:10275000B0470E2306AA02F80B3D236810215E69DC
:1027600020462B46B047082306AA22F80A3D2368D4
:1027700030215E6920462B46B04747F2305306AA07
:1027800042F8083D236837215E6920462B46B04752
:10279000236806AA42F8047D5E6936212B4620464E
:1027A000B047236839465D69042320460DEB0302D8
:1027B000A84706B0BDE8F08148A2000800B5A1B066
:1027C0000446FEF749FC0123234A1360234A1360A1
:1027D00004F02AFBFEF7A4F802F078FC204802F08F
:1027E0002FFB1F4800F02EFA18B91E4806F0BCFA5D
:1027F0000CE01B4800F070F9F0B91B4806F0B4FA81
:102800001A4806F0B1FA164800F048F900F0EEF95F
:10281000022813D903280AD1154806F0A5FA242264
:102820001449204606F046F9204600F0B5FD802206
:102830006946204602F0F8FC0F48D7E730220F49DE
:10284000204606F037F90E4804F0DDFAFFF7CCFD1C
:10285000FFF72AFDEBE700BF200200202402002042
:10286000B01E0020F0A300084DA40008B5A4000885
:102870002FA500082802002006A5000888AA000845
:102880000004024070B504460646054D0FCD0FC446
:102890000FCD0FC495E80F0084E80F00304670BDDF
:1028A000C81E0020014B9870704700BFC81E002052
:1028B000014BD870704700BFC81E0020014B187133
:1028C000704700BFC81E002070B504460E4604F0D5
:1028D00089FA08B3012204F01F039A400F4D6309DF
:1028E000043355F8230066B10243204645F82320FF
:1028F00004F072FA224601460948BDE8704006F02D
:10290000ABB920EA0202204645F8232004F064FA1D
:10291000224601460348F0E770BD00BFC81E0020F4
:10292000B7AC0008EFAC000808B540F20313034849
:102930003021038000F0D0F908BD00BFC81E002080
:1029400070B5114806F010FA0323104C002501263B
:10295000A37102232022294604F1100063716680CE
:10296000257106F0CBF831467E20E571E560FFF772
:10297000ABFF074806F0F8F9FFF7D6FFBDE8704057
:10298000044806F0F1B900BF4AAC0008C81E002098
:102990008AAC0008B1AC000838B5184C302120468C
:1029A00000F0AEF9054620B9154806F0DDF92846D5
:1029B00038BD2378022B17D8124D0521284600F088
:1029C0009FF92B7883B1104806F0CEF96B780F4849
:1029D000E370AB7823712B79A37006F0C5F9FFF78C
:1029E000A3FF0B4806F0C0F96378012B01D0FFF775
:1029F000A7FF6578003518BF0125D8E7C81E00205D
:102A0000B2AB0008F81E0020E4AB00081CAC0008C4
:102A1000B1AC000810B50C46A42104F0F1FA031B78
:102A20005842584110BD10B50C46082104F0E8FA90
:102A3000031B5842584110BD70B5094C054608218A
:102A4000204604F0DDFA6E68A060102300222146C3
:102A50002846B0470028D4BF0020012070BD00BF29
:102A6000B01F002070B50B4B0B4C054623600123B3
:102A7000A4212046237104F0C3FA6E68C4F8A400B0
:102A8000A8230C2221462846B0470028D4BF0020A6
:102A9000012070BDBEBAFECA001F002038B50A4C26
:102AA0000A4B05461860A8222046002106F026F8A9
:102AB000074B0022236001232371064B28461A701E
:102AC000BDE83840FFF7CEBF001F0020C41F002024
:102AD000BEBAFECAA81F002070B505462B4BD4B065
:102AE0001860A8220021684606F008F82C68A82380
:102AF0000C2269462846A047002845D0009A244B5E
:102B00009A4206D0234806F02FF90024204654B0FC
:102B100070BD29996846FFF77DFF0446E0B92E682D
:102B2000A4230C222AA92846B047A8B1A0212AA88C
:102B300004F066FA529B984203D0174806F014F945
:102B4000E4E7164806F010F9A8226946144805F093
:102B5000B1FF2846FFF786FFA8226946104805F016
:102B6000A9FF002211460F4B0D4C187865182D7CDB
:102B70000DB10122104601311029F7D102B11870B0
:102B80000124094B1C70C1E70446BFE7C41F0020A5
:102B9000BEBAFECA28AD000837AD000844AD000833
:102BA000001F0020C11F0020A81F002008B5044BF3
:102BB0001868836898470028D4BF0020012008BD0A
:102BC000C41F002008B560B9074B4FF4966218681F
:102BD0004FF48071C36898470028D4BF00200120BB
:102BE00008BD0120FCE700BFC41F0020074B187878
:102BF00050B1074B1B7833B1064B1B78002B0CBF31
:102C00000220032070470120704700BFC01F002032
:102C1000A81F0020C11F002038B515461022074C00
:102C2000C4E902012946A018C4F8A03005F042FF0B
:102C3000034B1868BDE83840FFF714BF001F0020A1
:102C4000C41F00201FB50F4A046810601023002223
:102C50006946A047A0B102996846FFF7E4FE044622
:102C600028B9094806F080F8204604B010BD1022AB
:102C70006946064805F01EFF0122054B1A70F3E76E
:102C80000446F1E7C41F002067AD0008B01F002014
:102C9000C01F0020034BC3E90001034B1868FFF776
:102CA000CBBE00BFB01F0020C41F0020014BD3E9E2
:102CB00000017047B01F0020014BD3E902017047AB
:102CC000001F002000487047101F0020014BD3F860
:102CD000A0007047001F0020802908B50A4609D8C7
:102CE0000146054805F0E6FE044B1868BDE80840BB
:102CF000FFF7B8BE002008BD201F0020C41F002021
:102D0000802908B50A4604D8034905F0D3FE0120FE
:102D100008BD0020FCE700BF201F0020014B186801
:102D2000704700BFC41F0020012070474FF0FF30E4
:102D30007047000041F658432DE9F0431B4C85B025
:102D4000E1581B4805F088FF1A4805F085FF41F659
:102D5000F4360023DFF8608004F5E3579A19A25C8B
:102D60005D1CDAB9472101FB03410A460B4652F8C4
:102D700040CFD1F84890D2F804E00A6D396853F892
:102D8000380FA1EB090101EB41015B68CDE902C1FC
:102D9000CDE9000E2946404605F05EFF642D2B4626
:102DA000DCD1002005B0BDE8F08300BFF02F00208B
:102DB00074B0000887B00008BAB000082DE9F047E9
:102DC0000C46ADF5067D0AAF984681469246002135
:102DD000ED22384605F092FE2389002406ADB8F1B5
:102DE000ED0FADF816302A460DF116004FF0010335
:102DF0004FF0020128BF4FF0ED0806948DF81C40FB
:102E000004F0B8F8012308AE324619468EA808949B
:102E10008DF8244004F0AEF823463A464146504629
:102E200004F0A8F83A4641460E4805F015FF214641
:102E30004FF4807246A805F061FED9F80020D9F859
:102E40000430CDE90025CDE902674922064946A8AC
:102E500005F0C6FF46A9054800F03FFE0DF5067DCA
:102E6000BDE8F08755AE00086BAE0008C81F002013
:102E700010B5044688B0026841680B4805F0ECFEC6
:102E80001222002103A805F039FE2268636800922F
:102E90000649412203A805F0A3FF03A9044800F056
:102EA0001CFE08B010BD00BF1DAE000849AE0008F2
:102EB000C81F002010B5044688B0026841680B485E
:102EC00005F0CAFE1222002103A805F017FE2268B1
:102ED000636800920649522203A805F081FF03A906
:102EE000044800F0FAFD08B010BD00BF23B300088D
:102EF00049AE0008C81F002010B5044688B002681B
:102F000041680B4805F0A8FE1222002103A805F035
:102F1000F5FD22686368009206494B2203A805F07C
:102F20005FFF03A9044800F0D8FD08B010BD00BF42
:102F3000F1B2000849AE0008C81F0020F0B506280D
:102F40008BB00C4606D0364805F00EFF4FF0FF3030
:102F50000BB0F0BD002600270AA961E90467012231
:102F6000606803F0F1FF0028F0D00AA961E9026768
:102F70000122A06803F0E8FF0028E7D000250AA995
:102F800041F8185D0122E06803F0DEFF0028DDD083
:102F90000AA941F8145D0122206903F0D5FF002839
:102FA000D4D0606905F0A4FB04461E4805F0DCFEA1
:102FB000DDE906211C4805F04FFEDDE908211B482C
:102FC00005F04AFE04991A4805F046FEE4B2059958
:102FD000184805F041FE2146174805F03DFE0499CA
:102FE000164800F0C0FC18B10499144800F0C6FC63
:102FF00040F63812124804994369383002FB043411
:10300000059B03940293DDE90823CDE90023DDE964
:10301000062300F0CAFBB0FA80F04009404297E76F
:103020007EAD0008B6AD0008C5AD0008DAAD0008F9
:10303000EEAD000800AE000810AE000828300020F9
:10304000F02F0020F0B52548BDB005F08DFEFFF74C
:103050002DFE07460E46FFF72FFE0C460546FFF7EE
:1030600031FEC27B817B1E4805F0F6FD3A463146B3
:103070001C4805F0F1FD2A4621461B4805F0ECFDF1
:103080006846FFF7FFFB194C9DF80210184804EB47
:10309000411105F0E1FD0CA8FFF7F4FB18A89DF81D
:1030A0003350FFF7EFFB24A89DF86260FFF7EAFBBF
:1030B0009DF89330294603EBC60304EB8304E268D2
:1030C0000C4805F0C9FD30A8FFF7DCFB9DF8C410E3
:1030D00009483DB0BDE8F04005F0BEBD5AB3000858
:1030E00071B3000801AA0008D7A80008BCB3000803
:1030F0008BB3000898B30008ABB3000808B5FFF71E
:10310000A1FF002008BD000008B501F09DFDBDE84D
:10311000084041F27071014801F0F4BFD82F00203F
:10312000082100B5D3B00DEB010004F00BF90C4CF5
:10313000684604F003F90A4800F090FC0028F7D133
:1031400012A9204600F098FC0028F4D012A805F03F
:10315000B4FE12A902460120FEF766FAEBE700BFB3
:10316000C81F002008212DE9F041D2B00DEB01006D
:1031700012AC04F0E7F8FF220021204605F0BEFC67
:10318000DFF840800C4E0D4F684604F0D7F800255C
:10319000404603F05CFF0135C0B263190D2803F807
:1031A000010CF5D100233A466355B6F900102346C9
:1031B000034801F09BFBE7E7286A0020C81F0020B6
:1031C000F02F00209068002010B50446A2B083695B
:1031D000026841680D4805F03FFD8022002102A8E9
:1031E00005F08CFC226894F840106368CDE900215A
:1031F00002A84A22064905F0F3FD02A9054800F09D
:103200006CFC054803F01AF822B010BD9DB200080E
:10321000E3B20008C81F0020A069002030B50328D1
:10322000B1B012D0424805F09FFD424805F09CFD28
:10323000414805F099FD0121404805F00DFD404849
:1032400005F092FD012031B030BDD1E901453D4985
:10325000204605F028FE014638BB0A22284605F024
:10326000C1FE0628044601DD3748E9E70146374834
:1032700005F0F2FC364BE0B25B691870FFF71EFBFD
:1032800018A8FFF7FFFA24A89DF86240FFF7FAFAA2
:103290002F4B002059699DF8933003EBC4022D4B4E
:1032A00003EB8203DB684B60CDE72B49204605F03A
:1032B000FAFD014698B90A22284605F093FE012836
:1032C000044604DD0121254805F0C6FCBAE70146A5
:1032D000234805F0C1FC2046FFF7E4FAD0E7214976
:1032E000204605F0E0FD0146F0B90A22284605F027
:1032F00079FE05466846FFF7C5FA164C9DF8023080
:1033000004EB43139B7A9D420ADB0CA8FFF7BAFA41
:103310009DF83230144804EB4314A17A0139D3E705
:10332000E8B2FFF7C5FAABE721461048CCE700BF8B
:10333000F2B000080BB1000811B100085CB1000840
:1033400082B10008B6B10008B9B10008E5B10008C3
:10335000F02F0020BCB30008AFB1000802B2000893
:103360002EB2000849B200084CB2000888B200082A
:1033700013B50C46064803F049FE0D2C05D1054B4C
:103380006846B3F9001003F093FF02B010BD00BF10
:1033900090680020D42F00202DE9F043A9B0054605
:1033A000FFF7FAFA00BB814805F0DEFC804805F023
:1033B000DBFCFFF747FE002105F10C02104652F836
:1033C0000C3B0131002BF9D10C267A4D013306FB61
:1033D00003F25459002CF9D10B44122B40F3E08036
:1033E00075490320FDF75EFBFFF72CFE734805F0DF
:1033F000BBFC04217248FEF73EF9002840F0B9807A
:103400006F48FEF73FFA002840F0B6806D4805F09F
:10341000ABFC6D4B6D4A00241A60FF22DC60C3E9EF
:1034200001246B4800F0FBFA6A4B0622CDE9014308
:10343000694B4FF44061009368482346FDF7CEFB8B
:10344000674B06221880674B4FF48061CDE901433A
:10345000654B664800932346FDF7C0FB644B654A05
:10346000188001234FF4E1311846FEF7CFF8013000
:1034700002D1614805F078FC4FF001085F4B042150
:10348000CDE91C83A3F580631F9303F6010320930A
:10349000A3F60D03219303F206432293434423939F
:1034A0004FF0FF332493564B56481E930333259316
:1034B000FEF7E1F85348FEF7E5F9044603215148C9
:1034C000FEF7D9F8B4EB080418BF01244FF4807755
:1034D0004D4B26944D4C4E4E2361A7821CA92C22A5
:1034E00004F1280005F0E6FA88222146304605F06E
:1034F000E1FA484B4848336005F036FCFFF7D6FB4D
:10350000464C474EC4E90001FFF7DCFBA06004A86D
:10351000FFF7B8F910A89DF81290FFF7B3F99DF8DE
:1035200043301CA803EBC9023E4B03EB8203DB686C
:103530007360FFF7A7F99DF87430204633703A4B5B
:10354000C4E90568E361394B2362394B6362394B47
:10355000A362394BE362394B636300F031FEFFF73E
:10356000DDFB1822394603F029FC354803F04BFCFB
:1035700021E7344805F0F8FB334B344841F27071D1
:10358000C36001F0BFFD052001F02EFB40F6FF7087
:1035900001F03EFB01F058FB01F04EFB2C4836E7F2
:1035A000044905F087FA29B0BDE8F0837DAE000834
:1035B000D9AE0008840B0020E99F000820AF000866
:1035C000010402405AAF000890680020A068002063
:1035D000C81F002008B0000865310008905C00207A
:1035E000D42F002014B00008213100082A6A0020DE
:1035F000286A00207133000820B000080C04024043
:103600000800024004040240A05CCA33A069002004
:10361000805C0020C8BF00084DB00008F02F0020DB
:103620004C020020BCB30008292D0008C931000855
:10363000F92E0008BD2D0008712E0008B52E0008D7
:10364000000402408FAF000809310008D82F002085
:10365000B1AF0008632938B504460CD847254D435F
:1036600005F1200020442022002105F047FA002324
:103670002C4484F8443038BD10B5044641F6284245
:10368000002105F03BFA012104F5DD531C3304F55C
:10369000E15203F8011B9342FBD141F6244300227F
:1036A000E25010BD2DE970439046064600244722A3
:1036B000994600F5DD531C3313F8011B41BB02FB97
:1036C000046569682868494508BF404520D195F8D8
:1036D0004430082B03D121463046FFF7BBFF47217A
:1036E0000022614302F1080301EB830333441868AD
:1036F00050B9069A31441A6091F84430013381F888
:1037000044302846BDE870830132082AEAD1F8E740
:103710000134642CD0D10025F3E72DE9F0430021DA
:10372000904699464FF0470E00F5DD54079D1C3436
:1037300014F8013BCBB90EFB01FC00EB0C025768FF
:1037400016684F4508BF46450FD11A4602F10801D9
:103750000CEB8101415821B18D4203D00132082A7E
:10376000F4D101231846BDE8F08301316429DFD18B
:10377000F7E72DE9D043904699464722002300F50C
:10378000DD511C3111F8014B3CB902FB03046768A1
:103790002668B94508BFB04505D00133642BF1D187
:1037A0000020BDE8D0830120FBE72DE9F74F0C4650
:1037B0000C99054600910D999346019100F5E15150
:1037C00009689A46632966D8FFF7D3FF06460028A2
:1037D00061D1632C5FD841F6BC3805EB040919F8B8
:1037E000081000295AD005F5E15704370121384661
:1037F000FEF796FC472262430F9909F8086005EB33
:103800000208009BC8F81C1045F802B098F8442044
:10381000C8F80830019B072AC8F804A0C8F80C3083
:10382000C8F8184088F8466003D921462846FFF7B3
:1038300011FF47220020114602FB04F600F10802A6
:1038400006EB82022A4413680BBB0E9B13604FF0F9
:10385000FF3201FB045484F84220002284F8432004
:1038600022756275A275E275012205F5E15584F8AD
:10387000462084F844202A680E9B01322362384691
:103880002A60FEF77DFC404603B0BDE8F08F0130B2
:103890000828D3D1DBE74FF00008F4E78846F2E7C9
:1038A0002DE9F74F0C9900F5E1570191396806466B
:1038B000632990469946DDF834B052D8FFF759FF96
:1038C000054600284DD107F1040A01215046FEF7B4
:1038D00027FC06F5DD521C3212F8014B002C3CD0BF
:1038E000002041F6BC317219505447226A430F99A7
:1038F000B418E16146F8028094F84420019B072A3D
:10390000C4F80490A360C4F80CB0A56184F8460024
:1039100003D929463046FFF79DFE47220021554333
:1039200001F1080205EB82023244106888B90E9951
:103930003544116095F84420013285F844203A68F6
:1039400001323A605046FEF71BFC204603B0BDE84A
:10395000F08F01310829E3D1F1E70135642DBBD1A6
:10396000F0E70024F1E763299FBF41F6BC3340181C
:10397000C05C80F0010088BF0020704763292DE9FA
:10398000F04104460D461FD841F6BC3700EB010854
:1039900018F80730C3B900F5E15604360121304666
:1039A000FEF7BEFB29460125204604F5E154FFF74A
:1039B00051FE236808F80750013B30462360FEF7AC
:1039C000DFFB2846BDE8F0810020FBE72DE9D0436E
:1039D000002190469946472200F5DD541C3414F826
:1039E000013B53B902FB01035F681E684F4508BFE6
:1039F000464502D11846BDE8D08301316429EED195
:103A00000020F8E7632908D841F6BC334218D35C9C
:103A10001BB9472303FB010070470020704741F2A8
:103A200008030022C2504FF0FF3341F204028350DA
:103A300000F580500360704741F20403C35800F55D
:103A4000805001335A42006802F00F0203F00F0366
:103A500058BF53421B1A58425841704700F58053D3
:103A60001B68013306D141F20403C058431C58427D
:103A70005841704700207047F8B505460F46FFF7DC
:103A8000EDFF40BB05F580540834012105F5805653
:103A90002046FEF745FB31684FF4807205EB0121AB
:103AA000384605F007F841F204023368A9588B4202
:103AB00008D14FF0FF33AB5020463360FEF760FB78
:103AC0000120F8BD01335A4202F00F0203F00F0348
:103AD00058BF5342F0E70020F3E7F8B504460E461E
:103AE000FFF7AAFF074630BBFCF7C8FD0546204696
:103AF000FFF7B4FF41F2040290B104F58053A750E0
:103B00001F6041F20403E0584FF48072314604EB29
:103B1000002004F0CFFF2846FCF7B8FD0120F8BDD7
:103B2000A3580133594201F00F0103F00F0358BFAE
:103B30004B42A350E5E70020F1E7000037B5102124
:103B40000A4803F0FFFB43F25645094C684603F070
:103B5000F5FBBDF80230AB4204D101980368DB6885
:103B60009847F3E7204605F0FFF8EFE72C6E0020BA
:103B700035B5000842680178C068FEF793BD0000C3
:103B800030B5044685B004F1140508460095114689
:103B90001A46089B00F078FF294604F58C7000F067
:103BA000F3FFA37A80F00100C5B22BB1074805F0FE
:103BB000DBF8284605B030BD42F28E43226902A8E8
:103BC000D15E039403F096FBF3E700BF07B500084E
:103BD0002DE9F0411C46054616460F460698194643
:103BE00000F02EFFE27A237B06922D6804F10D028D
:103BF00039463046AC46BDE8F04160472DE9F04F0C
:103C00000239DBB0064614460E291CD8DFE811F055
:103C10000F001B0074011B001B001B001B001B007E
:103C20009601710171011B001B001B008C010368D0
:103C300015695F6800231A461946B847071E05DA5A
:103C4000BA4805F009F85BB0BDE8F08F336830463C
:103C50000026D3F804803A4607AB1AA9C0479DF95D
:103C60001D303946BDF91E20B14804F0F5FFBDF8FE
:103C70001E30A672238139461AA800F023FF0028BF
:103C8000E1D01B994B1C1CD005F13800FFF7BAFEA0
:103C900006460028D7D005F5E3531B684169036148
:103CA00090F844308269073350F8230010AB00933A
:103CB0000CAB00F0C7FE1AA90CA800F031FE0028DA
:103CC000C1D09DF87230013B0B2BBCD801A252F839
:103CD00023F000BF4D3D00088F3D0008DB3D00088C
:103CE000473C0008053D0008473C0008473C0008E9
:103CF000E13D0008473C0008473C0008473C0008FD
:103D0000CF3E0008002E9ED0B6F84230BDF870209D
:103D10000133DBB2934296D8EB6AA6F8422013B186
:103D200021463046984796F840302BB996F84530F2
:103D300013B1013B86F8453010AB009332461AAB05
:103D4000214605F12800FFF743FF7CE7002E3FF4F2
:103D50007AAFB6F84230BDF870200133DBB293423F
:103D60003FF671AFEB6AA6F8422013B12146304608
:103D7000984796F84030002B7FF465AF96F84530B1
:103D8000002B3FF460AF013B86F845305BE7002E27
:103D90003FF459AFB6F842309DF870200133DBB2E2
:103DA0009A420CD310AB009332461AAB214605F170
:103DB0002800FFF70DFFBDF87030A6F8423096F8E6
:103DC00045301BB9042200931B996CE06B6B002BF0
:103DD0003FF439AF3046984735E7002EACD132E793
:103DE0001B9B01337FF42FAF9DF87460182E7FF476
:103DF0002AAF1AA9A86800F093FD00283FF423AF6A
:103E00001AA9A86800F01CFE32460DF1750114A82D
:103E100004F050FEDDE91467DDE916AB9DF864306F
:103E2000D5F81C90DDF860800593B9F1000F3ED104
:103E300005F13809CDF8008032463B464846FFF789
:103E40006CFC00283FF4FFAE32463B464846FFF785
:103E500090FC002833D1CDE90284CDE900AB324695
:103E60003B464846FFF71CFD804600283FF4EBAE7A
:103E7000059BC46180F8403005F5E3531B6803617E
:103E80002B6A9847002388F8423088F84330102383
:103E90000922D8F81810CDE90867CDE90A10C8F84A
:103EA0001400009308AB2046FFF76AFECBE65246AB
:103EB0005B4630463946C8470028B9D1C3E6CDF83D
:103EC000008032463B464846FFF7ECFBCCE7002E2D
:103ED0003FF4B9AE102500212A4614A804F00EFEC6
:103EE00001F088F8002314901593009514AB0D226F
:103EF0006AE70023A372A6E641F68C4321690D4AC6
:103F0000CB5E04F624100C49546003F043F82046BD
:103F1000FFF730FE0323E0688DF8683003681AAAC3
:103F20005D6918210123A8470123E3E7C3B6000810
:103F3000DEB60008B876002000093D00D0680368AE
:103F40009B6898472046FFF715FE0323E0688DF82D
:103F5000683003681AAA5C6918210123A04772E639
:103F600013B589B943F25643ADF802300A4B0190BC
:103F7000B3F90010684603F09BF9002802DC0748FB
:103F800004F0F2FE02B010BD1AB905490320FCF797
:103F900089FDFFF733FEF5E7AC6E00200AB7000895
:103FA000E99F00082DE9F041E0B018B9414903202C
:103FB000FCF778FD402200210DEB020004F09EFD8D
:103FC000082110A803F0BEF93B4804F0CDFE3B4E9B
:103FD00004A803F0B3F9059D05F58C78404600F080
:103FE00095FD07460028F3D120AC2146404600F05D
:103FF00099FD0028ECD02781002DD7D0A37A28691D
:10400000043B0397072B40D8DFE803F02B3F3F0426
:104010003F043F042246816803AB084605F58A77D2
:1040200000F0F6FC01213846FEF77AF8304604F03D
:104030009BFE02232846AB72FFF79CFD039BE868BA
:104040000D330793036806941B68012206A998475D
:10405000002802DA1A4804F087FE3846FEF790F886
:10406000B6E761683830FFF7CDFC90F844308269DC
:104070000733416950F823000023009308AB00F098
:10408000E1FC03AB224608A9C7E761683830FFF7B7
:10409000B9FC90F844300CAF07338269416950F89D
:1040A000230008AB009700F0CDFC03AB2246394655
:1040B00008A8B3E7E99F0008C9B70008FCB70008E3
:1040C00010B800082DE9F04F054695B018B93649EB
:1040D0000320FCF7E7FC4022002104A804F00EFDB9
:1040E000082104A803F02EF9304804F03DFE05F540
:1040F000E357684603F022F99DF80240E4B1012C31
:10410000F7D1019C002CF4D004F58C7000F0FEFC7B
:104110000646002842D1264804F026FE04F6241064
:10412000FCF778FC42F28E432269A672D15E02A8A7
:10413000039403F0DFF8DCE74FF0470A4AF6BF0BC1
:104140003B6805F5DF5601333B60143605F138084E
:1041500016F8013BA3B90AFB04F905EB090393F830
:104160007E1069B9996C3B685B1A5B4508DD214696
:104170004046FFF703FC6B6A13B108EB0900984750
:104180000134642CE4D141F68C4305F5E350EB5E39
:10419000084A0949043002F0FDFEAAE70023074857
:1041A000A37204F0E1FDA4E7E99F000830B700081E
:1041B00059B70008B0760020C0C62D0094B700089B
:1041C0002DE9F043044687B018B953490320FCF7A2
:1041D00069FC4369002BF8D08369002BF5D00122DC
:1041E00000264E4B4E4D4F485A806E8004F0BCFD69
:1041F0004D4B04F5E450CDE901434C4B05220093AF
:104200004FF4006108230E30FCF7E8FCB0F1000821
:1042100007DC474804F0A8FD6FF0010007B0BDE8D7
:10422000F083444B0622CDE90163434B4FF4006118
:10423000009342480823FCF7D1FC414B002818802A
:1042400001DC4048E6E741F68C473F4824F8078008
:1042500004F08AFD3D4B04F51250CDE901433C4B7F
:10426000052200934FF4006108231030FCF7B6FCE0
:10427000002805DC374804F077FD6FF00400CDE737
:1042800042F28E43E05204F5E350E35F2A4632499E
:10429000043002F07FFE04F13800FFF7EDF940F63C
:1042A0003817DFF8B880DFF8B890A269F3B29A4205
:1042B00001D80620B2E77B436269D518E968002976
:1042C00083D000212C61C5F814110136002D3FF474
:1042D0007CAFD25C6968404604F0BEFC05F58C708A
:1042E00000F0FAFBE86803689B689847E868C0E953
:1042F000019501F0A3FF00F0C1FD2846FFF73AFC4D
:10430000032306AAE86802F8013D036818215D69E5
:104310000123A847C9E700BFE99F0008B87600203D
:10432000B07600205CB5000889B50008C5400008DB
:1043300099B50008CAB500083D3B0008AE6E0020E4
:10434000AC6E0020E0B500080EB600083FB60008CD
:10435000A53F000853B60008C0C62D008BB6000864
:10436000613F000873B538300C4615461E46FFF70E
:1043700049FB014670B191F84530C069002B0096A9
:104380002B4614BF062200222146FFF7F9FB062028
:1043900002B070BD6FF00200FAE700002DE9F043B3
:1043A00000F1380585B00446284616461F46FFF73B
:1043B0000DFB18B181692846FFF7E0FA002540F6A9
:1043C00038184FF00809A369E8B2984203D30620D1
:1043D00005B0BDE8F0836369013508FB0030C368B0
:1043E0001BB907490320FCF75DFBCDF8009002AB39
:1043F0000B224FF0FF31CDE90267FFF7C1FBE2E787
:10440000E99F00082DE9F34105460E4617460024B2
:1044100040F63818AB69E0B2834203D8062002B0F8
:10442000BDE8F0816B69013408FB0030C3681BB93B
:1044300005490320FCF736FB0097334607224FF06F
:10444000FF31FFF79DFBE5E7E99F0008BFF34F8FC2
:104450000549064BCA6802F4E0621343CB60BFF320
:104460004F8F00BFFDE700BF00ED00E00400FA053C
:104470002DE9F04F1D465C1C1B78AFB03F3B064654
:104480008946904600F13807172B00F22082DFE8BA
:1044900013F09B001E02F900E200D901CD011E02BB
:1044A0001C00BF011E025C00E501850121001E0207
:1044B0001E021E0218001E021C021E021E0218020C
:1044C000C600C2494046FFF708FB49460EA802F065
:1044D000EFFE37E00024472700F5DF55DFF828938B
:1044E000DFF828A3143515F8013B43BB07FB046232
:1044F0001346104653F8381F92F878E050F840CF32
:104500005B684068CDF810E006F5E35ED2F848B08D
:10451000DEF80020CDE90010A2EB0B0202EB420214
:10452000CDE902C249464C220EA804F059FC0EA95E
:104530004046FFF7D2FA10B9504604F015FC01349A
:10454000642CD0D12FB0BDE8F08F204604F0B5FC2C
:10455000122802D829469E4823E0002000212EAAD6
:1045600062E9240101231021204602F0BFFC00284B
:10457000F0D0DDE90A233846FFF728FA074628B9C4
:10458000DDE90A21934804F067FBDBE705F1110838
:10459000404604F092FC441E14F0010304D0294666
:1045A0008D4804F059FBCDE70EAA2146404602F0A3
:1045B0009DFC0028CED002230EAA94FBF3F3B96928
:1045C0003046FFF7CFFEBDE7204604F076FC122808
:1045D000C0D9002000212EAA62E920010123102168
:1045E000204602F083FC0028B4D0DDE90E233846D3
:1045F000FFF7ECF9044618B9784804F0B5FBA1E7D9
:104600001022002105F1110004F0ECFC226884F86E
:104610004500C3B26168724804F01EFB92E7204671
:1046200004F04BFC102895D9002000212EAA62E945
:10463000200101231021204602F058FC002889D0D7
:10464000DDE90E21674804F007FBDDE90E23304663
:10465000FFF7A4FE76E7204604F02FFC471E17F074
:1046600001039CD10EAA3946204602F03FFC0028E7
:104670003FF470AF02220EA997FBF2F23046FFF72B
:10468000C1FE5FE74669204604F017FC32287FF63A
:1046900061AF4FF000084FF000092EAA62E92489AB
:1046A00001231021204602F021FC00283FF452AFE4
:1046B0002EAA62E920890123102105F1110002F0E0
:1046C00015FC00283FF446AF00242EAA42F8984D6E
:1046D0000123082105F1210002F008FC00283FF425
:1046E00039AF0899632902D964223F484BE72EAAC3
:1046F00042F8944D0123082105F1290002F0F6FB50
:1047000000283FF427AF2EAA02F8994D0123022179
:1047100005F1310002F0EAFB00283FF41BAF3348FB
:1047200004F09AFADDE90A21314804F095FADDE94E
:104730000E21304804F090FA08992F4804F08CFAC2
:1047400009992E4804F088FA9DF81F102C4804F0AF
:1047500083FA08993846FFF706F918B108993846E0
:10476000FFF70CF940F638129DF81F30089902FB4C
:1047700003630393099B38460293DDE90E23CDE9D9
:104780000023DDE90A23FFF710F800283FF4DAAE32
:104790000023037543758375C375D3E600244FF07A
:1047A000470800F5DF55143515F8013B43B908FB00
:1047B000046393F87E301BB121463846FFF7DEF8DC
:1047C0000134642CF0D10F4817E700BF3CB8000853
:1047D00078B800089EB80008CCB8000804B90008F2
:1047E00037B9000870B90008A4B90008D6B90008A4
:1047F000F5B9000806BA000819BA000827BA000877
:1048000036BA000842BA00083FB800085BB8000892
:10481000204604F052FB032801D021469BE62046A7
:1048200003F066FFC0B2FEF73DF88BE6204604F0C9
:1048300044FB0328F1D1204603F05AFFC0B2FEF733
:104840003DF87FE6204604F038FB0328E5D12046FA
:1048500003F04EFFC0B2FEF72BF873E6204604F0DB
:104860002CFB212802D021461A489AE6102200216A
:104870000AA804F043F9FEF71FFA002206460F4685
:1048800020460AA902F060FB10B92146124888E6CA
:1048900000230AAA30463946FEF7BEF968B1202245
:1048A00000210EA804F02AF910210AA800230EAA5C
:1048B00002F060FB0EA9094873E6094804F0CCF940
:1048C00040E600210748FDF7E5FAFFF7BFFD29465E
:1048D000054866E681BA0008A1BA00084DA900089B
:1048E000C8BA0008AD1007B0E5BA0008FFF7C0BDB0
:1048F00000B58BB002F1090302AA0092DBB20A1DD7
:10490000102103F083FA9DF809309DF808001B027E
:1049100043EA00439DF80A0018430BB05DF804FB1E
:1049200010B50C460A7BFFF7E3FF2368B0EB132FAB
:104930000CBF0120002010BD2DE9F04391F80C9030
:104940008FB01FFA89F506460C46002D44D0102280
:104950000021684604F0D2F82C4910233246096839
:1049600008A802F015FD002301262F468DF811300E
:104970008DF812308DF813308DF81430A37A8DF83D
:1049800010608DF8153063680D34CDF8163034F8AA
:10499000053CCDF81A30A9EB07030F2F5FFA83F817
:1049A0001DD82B09C3EB033205EB0215ADB21E0176
:1049B00001338DB16A4604A908A88DF81F3002F0B2
:1049C000F8FC00233444E25C1DF803104A40E25432
:1049D00001339AB29542F6D80FB0BDE8F0836A462B
:1049E00004A908A88DF81F6002F0E3FC002201363C
:1049F000B6B204EB0803995C1DF8020041409954DB
:104A00000132102AF7D1103FBFB2C4E7ACC300088F
:104A100070B51D46137B0646144608462B6013B13D
:104A20001146FFF789FF2A7821463046FFF760FFDD
:104A3000C0F307236070C0F30740A370E07070BD3F
:104A4000FFF77ABF30B58DB0109C1D461BB90D49DC
:104A50000320FCF727F8CDE9010103920C2104AAF9
:104A600001A803F06BF9102228460DEB020104F0B7
:104A700021F824B1102208A9204604F01BF80DB03B
:104A800030BD00BFE99F00082DE9F041069C80463B
:104A90000F46164600214FF4807220461D4604F052
:104AA0002DF8FF23C4F804802370A77225733DB14D
:104AB0002A46314604F10D00BDE8F04103F0FABF8B
:104AC000BDE8F0810C2905D90078A0F1FF03584218
:104AD00058417047002070470023C0F808384FF055
:104AE000FF33C0F80438C0F800387047D0F80438F5
:104AF000D0F8000801335A4202F0070203F007031E
:104B000058BF53421B1A584258417047D0F80038DA
:104B1000013305D1D0F80408431C5842584170476E
:104B20000020704770B504460E46FFF7EFFF48BB04
:104B300004F6080501212846FDF7F2FA46B1D4F83B
:104B400000184FF4807204EB0121304603F0B2FFED
:104B5000D4F80038D4F8042893420AD14FF0FF3338
:104B6000C4F804382846C4F80038FDF709FB0120D2
:104B700070BD01335A4202F0070203F0070358BF29
:104B80005342EFE70020F3E7F8B504460E46FFF77F
:104B9000ADFF074628BBFBF771FD05462046FFF732
:104BA000B5FF88B1C4F80478C4F80078D4F80408D4
:104BB0004FF48072314604EB002003F07BFF28465F
:104BC000FBF764FD0120F8BDD4F8043801335A42E4
:104BD00002F0070203F0070358BF5342C4F8043839
:104BE000E4E70020EFE70000062808B503D90649EE
:104BF0000320FBF757FF45F25552044B1A60002281
:104C000058601A6008BD00BFE99F000800300040EE
:104C1000B0F5805F08B503D305490320FBF742FFD9
:104C200045F25552034B1A60002298601A6008BD85
:104C3000E99F0008003000404CF6CC42014B1A605E
:104C4000704700BF003000404AF6AA22014B1A60AC
:104C5000704700BF00300040054B5A68D10741BF84
:104C6000044ADA60044ADA605A68D207FCD4704712
:104C7000003C0240EFCDAB890504030210B502F100
:104C8000006202F50022C818521A814201D118466A
:104C900010BD545C01F8014BF7E70000084B9A691E
:104CA000D10709D49A69D20508D49B6913F4F05F3F
:104CB00014BF032004207047012070470220704772
:104CC000003C024010B5FFF7E9FF4FF40044012813
:104CD00006D10CB9052010BDFFF7E0FF013CF6E757
:104CE000002C08BF0520F6E700F1774303F57803B1
:104CF000B3F5804F70B504460D4603D32449032015
:104D0000FBF7D0FEFFF7DEFF022806D1214A9369A8
:104D100043F480739361FFF7D5FF042836D1FCF785
:104D200051F9022830D87DBB24F003052E68FFF727
:104D3000C9FF022806D1174A936943F4807393612F
:104D4000FFF7C0FF042804BF00232B60FFF7BAFF62
:104D5000022806D10F4A936943F480739361FFF7E9
:104D6000B1FF042812D10B4A04F00304536823F462
:104D700080735360E300FF249C4026EA04042C6007
:104D8000BDE87040FFF79EBF2570F9E770BD00BF1A
:104D9000E99F0008003C0240F8B510460C461E464C
:104DA000FFF75AFF00F1006202F50022A719151B58
:104DB000BC4206D1064A3046536843F001035360B3
:104DC000F8BD281914F8011BFFF78EFFF0E700BFAC
:104DD000003C024070B50C461546FFF73DFF2E190A
:104DE000B44206D1074A2846536843F00103536092
:104DF00070BD04F10060FF2100F50020FFF774FF93
:104E00000134EDE7003C024038B5FFF725FFFCF721
:104E1000CFF800240546AC4206D1084A2046536824
:104E200043F00103536038BD04F10060FF2100F539
:104E30000020FFF759FF0134EDE700BF003C0240BE
:104E4000044B4360044B0360044B8360044BC3601A
:104E500000207047994D00087D4C0008094E00085D
:104E6000D54D000807B504210DEB010003F006F84D
:104E7000019800F003F803B05DF804FB0146014817
:104E800001F070BFC0760020134970B5D1E901462A
:104E90000A6884EA0603C86822F000425A4082EA9F
:104EA000420280EA500050400D6940F300031D406B
:104EB00075404D604D6982EA80222B4053400C6062
:104EC0008B6004EB13238C69C860584043F30003E4
:104ED0002340584070BD00BFC0760020074B10B47F
:104EE0001A6842B9064B0749B0FBF3F403FB140000
:104EF00010BCFCF7F3BE10BC704700BFDC7600208E
:104F000000840C24055000080020F0B51D4E1E4DF5
:104F100033680746013333601C4BB4461A68186087
:104F20002B681B4C1946226021B1DCF800E08E682A
:104F3000764513D900B129607FB100213960FAB1FB
:104F400083B15168586881428CBF194611460846A2
:104F500012681B6842B903602160F0BD0F46012052
:104F60000968E1E71146F2E70BB90260F4E755681A
:104F70005E68B5428CBF1D46154605602846E7E7CA
:104F80002360EAE7E0760020E4760020E87600205F
:104F9000EC760020134A136883420ED11B6813601D
:104FA00013B15868FFF79ABF0F48FBE7984219689A
:104FB00001D1116070471A460B46002BF6D10B4AFF
:104FC00013681BB90A4A136833B9704798421968C5
:104FD000EFD01A460B46F4E798421968E9D01A4612
:104FE0000B46F1E7EC76002000840C24E8760020E4
:104FF000E476002007B501A8FCF7EEFE019803B0A7
:105000005DF804FB2DE9F84301232D4D2D4F2C684D
:105010003B6074B9FFF778FF4FF000082A4E2B6809
:105020005BB9FFF7E7FF84422CD9FFF76DFF00243F
:10503000F5E7FFF7DFFF0446EEE7D3F80490FFF74C
:10504000D9FF844208D8B9FBF6F306FB13938342D9
:1050500002D91B1A032BE4D82B68D3F80490FFF76E
:10506000C9FF844205D8B9FBF6F306FB13938342CC
:10507000F2D82B681A68C3E901882A60D3E90320B3
:105080009047CCE72B686BB1D3F80490FFF7B2FFE1
:1050900004308145C3D3002348463B60BDE8F84354
:1050A000FFF71CBFFFF7A6FF8442BED8021DB2FB6C
:1050B000F6F306FB13239842B7D8DFF80C90EAE723
:1050C000EC760020DC76002000840C2408B5FCF788
:1050D00065FCBDE808400148FFF700BF00840C24D0
:1050E00038B50446FBF7CAFA636805460BB9A368EE
:1050F00013B12046FFF74EFF2846BDE83840FBF7C6
:10510000C5BA0000C3682DE9F04104460D46002BE6
:105110006BD0FFF7E5FF032D04D8D4E90330BDE8D9
:10512000F0411847FFF766FF314B05449D4282BFAF
:1051300005F15C45A5F54825A5F57F75FFF75AFFF4
:10514000002385420746236002D32B1F9842E4D8F0
:10515000FBF794FA636806460BB9A36813B12046BF
:10516000FFF718FF234BBD421A681B6838BF013296
:10517000A260A1686560994213D91F4A136833B1D0
:10518000986881420AD802D15868854206D22360C5
:1051900014603046BDE8F041FBF778BA1A461B6848
:1051A000EDE7164AB7FBF2F302FB1377BD420FD9C6
:1051B000134B19461A6812B15068854212D2226008
:1051C0001C600B689C42E4D12846FFF787FEE0E7AD
:1051D0000C4A1368002BDAD059688D42D7D31A468F
:1051E0001B68F7E713461268E5E7BDE8F08100BFEA
:1051F000FB830C24E0760020E476002000840C245D
:10520000EC760020E876002008B53E2003F03CFD57
:10521000202003F039FD034B1B689868BDE8084067
:1052200003F01ABBB80C002006460D462DE9804855
:1052300083B000AF7A60AB464FF00008FFF7E4FFA1
:105240007B685C1EABEB0503A342F4DA03F0FCFBC6
:10525000031EF0DB0D2B01D00A2B1BD100240D20E7
:105260008BF8004003F010FD0A2003F00DFD5D45B2
:10527000E1D02B462146A146A446187820282ED9F5
:10528000222801D0272835D15C78ECB96B4803F08F
:105290006BFDD0E7082B01D07F2B10D15D45D1D01D
:1052A0000BF8018C082003F0EFFC202003F0ECFC4D
:1052B00008200BF1FF3903F0E7FCCB46C2E70BF106
:1052C00001098BF80030F6E75C2C0DD001331C7817
:1052D0008442D9D158782028D8D809F101091C78FE
:1052E000CCB103F801CBC8E79C78002CCED00131BB
:1052F0000233ECE71C7858785C2C0AD10131002885
:10530000C4D0581C431C40782228BFD02028F1D894
:10531000E3E71846F6E7B9F1000F8CD04FEA8903AE
:105320000E3323F00703EB46ADEB030DEA46AC4624
:105330004AF829409CF8003060460CF1010C002B23
:10534000F8D0222B01D0272B00D101304AF82400BD
:1053500084469CF800300130002BF9D101344C45D3
:10536000E8D1AAF1040C11B15CF8040F90B9DAF895
:105370000080D6B134462068B8B1414603F093FDB1
:1053800000283BD00C34F6E75C2B03D123783BB9E3
:105390000139ECD0044610F8013B002BF4D1E2E7D0
:1053A00094F801E004F801EBF0E7254CF4B9DAF8E1
:1053B0000010244803F077FD002838D1224A234901
:1053C000234803F049FC234803F0CEFCF6B1DFF894
:1053D000808006F10C040C3454F8181CB1B154F858
:1053E000142C404603F038FCF5E70C342068002804
:1053F000DDD0414603F057FD0028F6D1A468002C0B
:10540000D5D051464846A047DD4614E70C4C002C49
:10541000FAD0DFF83C800C340C3454F8181C002906
:10542000F2D054F8142C404603F016FCF4E7DAF8F6
:105430000010094803F010FCE6E700BF06BB0008B7
:1054400088BB00081FBB000824BB000830BB000855
:1054500038BB000842BB00086ABB000808B501F071
:1054600085FF002008BD08B5FBF71CFF002008BD24
:10547000012838B511D10C4D00202C68FCF7AEFD89
:105480002B689C42F8D104432146084803F0E4FB12
:105490002046FFF7F3FC002038BD486803F028F9E8
:1054A000044601460248F1E7B00F00208EBC000818
:1054B000B4BC000808B5FFF7E7FC0146024803F05A
:1054C000CBFB002008BD00BF89BC00081FB5D0E998
:1054D0000421036801320293436801F26C71019365
:1054E00083680093C368034803F0B6FB002005B04F
:1054F0005DF804FBE5BC0008014803F035BC00BFC3
:10550000D6BC000808B50E4803F02EFC0D4803F089
:105510002BFC0D4803F028FC0C4803F025FC0C483C
:1055200003F022FC0B4803F01FFC0B4803F01CFCAB
:105530000A4803F019FC0A4803F016FC002008BDD5
:10554000D0BD0008F1BD0008FBBD00081CBE00086E
:105550003EBE000867BE000890BE0008D5BE000829
:10556000F6BE000837B50C46054601A90A220068B8
:1055700003F038FD00B2A0F26C706061019801A9DF
:105580000A22013003F02EFD00B20138206101989B
:1055900001A90A22013003F025FD00B2E06001A953
:1055A0000A22686803F01EFD00B2A060019801A9FC
:1055B0000A22013003F016FD00B26060019801A9D3
:1055C0000A22013003F00EFD00B22060D4E904028B
:1055D00002F26C720128D8BF013A04236FF0630114
:1055E00092FBF3F392FBF1F113440B444FF4C871B7
:1055F00092FBF1F21344094A52F820200020134490
:10560000E2681344072293FBF2F2C2EBC2029B1A38
:10561000A3614FF0FF33236203B030BD2CBF0008FD
:1056200070B501288AB006460D4603DCFFF76AFF15
:10563000012408E007223A49686803F046FC044662
:1056400020B9FCF747FC20460AB070BD0822354956
:10565000686803F03AFC044610B9FCF747FCF2E72F
:1056600008223149686803F030FC044610B9FCF7A1
:10567000C3FAE8E708222D49686803F026FC0446CF
:1056800058B901A8FCF774FA18B901A8FFF71EFF72
:10569000D9E7274803F068FBD5E708222549686861
:1056A00003F013FC044688B9042E0FD101A905F1BB
:1056B0000800FFF757FF0028C5D122461E4901A860
:1056C000FCF7ACFA0130BED11C48E3E707221C49C5
:1056D000686803F0FAFB044630B901A8FCF702FA47
:1056E0000028D2D01748D5E707221749686803F089
:1056F000ECFB044678B9042E0DD101A905F1080090
:10570000FFF730FF00289ED101A8FCF797F9013080
:1057100099D10E48BEE769680D4803F09DFA85E708
:1057200004BD00080CBD000815BD000820BD000820
:1057300029BD000842BD0008F95400084BBD00080F
:1057400064BD00086CBD000884BD00088CBD000865
:10575000A4BD000808B54FF080510020FBF726FEDD
:10576000024A136843F48073136008BD0070004060
:10577000044A4FF080511368002023F480731360B3
:10578000FBF72EBE0070004008B5FFF7E3FF064BA5
:105790005A6B42F480725A635A6B9205FCD5BDE88D
:1057A0000840FFF7E5BF00BF00380240F8B5104CD5
:1057B000012104EB401467683846FBF75CFFA668DC
:1057C00000213046FBF757FFE56801212846FBF72B
:1057D00052FF247D38462146FBF7EEFF2146304636
:1057E000FBF7EAFF21462846BDE8F840FBF7E4BF97
:1057F0005CBF000801282DE9F041044603D9104997
:105800000320FBF74FF900250E4BDFF83C8043F8EF
:1058100020506401FFF7CAFF08EB04031E7F9F6955
:1058200030463946FBF7C2FD58F8043039461D8032
:1058300030469D839D80BDE8F041FBF7D1BD00BFA0
:10584000E99F0008F07600205CBF0008012838B509
:105850000C4624D84A1C25D021F0FF0313F5807F85
:1058600002D111F0FF0F1DD114F5807F0FD10F4C25
:1058700004EB401425696B1C14D001212846FBF76A
:10588000FAFE217D2846FBF797FF002038BD012155
:105890002046FBF7F0FE2046FCF714F8F5E74FF042
:1058A000FF30F3E76FF00100F0E700BF5CBF0008D6
:1058B0002DE9F843074617489846DFF860901446EC
:1058C0000E4600EB870001217F01FCF729FC09EB64
:1058D00007031D7F99692846FBF768FD0E4A05EB13
:1058E0008505154415F8082059F8071044F00404FC
:1058F00044EAC20416F5807F0C8015BF0B888B88A4
:1059000043F4407343F0040314BF0B808B800020EA
:10591000BDE8F883F07600209CBF00085CBF00085B
:105920000C4A430110B50446D018D2580023138006
:105930009388816923F004031B041B0C007F938070
:10594000FBF74EFD044800EB8400BDE81040FCF777
:1059500017BC00BF5CBF0008F07600202DE9F843BB
:105960000F46DDE9086891461D4623B91EB9334943
:105970000320FBF797F8324B40011C5817F5807F46
:10598000238843F04003238004D07B1C02D0384698
:10599000FBF7A3FF002E2FD1A844454523D123892F
:1059A0009907FCD523891A06FCD42389DB0721D467
:1059B00023899907FCD523891A06FCD4B9F1000F75
:1059C0003AD17B1C38D0238817F5807F23F0400321
:1059D0004FEA03434FEA134323802DD03846BDE8F6
:1059E000F843FBF76FBF23899807FCD515F8013BF7
:1059F0002373D2E7A389D8E7E5B93046B0444045E0
:105A0000D6D023899E07FCD525732389D907FCD5D9
:105A1000237B00F8013BF2E722899207FCD5EA5C80
:105A200022732289D007FCD5227BF25401334345EF
:105A3000F2D1BDE70023FAE7BDE8F883E99F00084B
:105A40005CBF000810B50446002800F0FD80103946
:105A50002C2900F2FC80DFE811F0CA008D00FA006A
:105A6000FA00FA00FA00FA00FA002D00FA00FA0033
:105A7000FA00FA00FA00FA00FA00FA00FA00FA0056
:105A8000FA00FA005B00FA00FA00FA00FA00FA00E5
:105A9000FA00FA00FA00FA00FA00E4009400670045
:105AA0009E00A800AF00BA00C2006F00790083001A
:105AB000D900EC00012B03D968490320FAF7F2FF63
:105AC0001378013B062B00F2C280DFE803F0040DDF
:105AD000111519091D00204600F02CFE012010BDF3
